S011000073657175656E6365722E7372656348
S214001000130101FD2322910223202103232E310107
S214001010232C4101232A5101232861012326110292
S21400102023248102EF30D03F9307F0FF2302F10024
S2140010302324010023260100B70901003709010017
S214001040370A0100930A1000370B010013850900C8
S214001050EF1050761305E000EF3050501304F0FF09
S21400106013054000EF30505263128506EF008011E2
S214001070E30805FE834641001307F00F83A7C18AE5
S2140010806390E60C638807001305A00023A6018A78
S214001090EF30D04C3705010013054503EF10907173
S2140010A08320C10203248102832441020329010212
S2140010B08329C101032A8101832A4101032B0101EF
S2140010C0130510001301010367800000EF00400DB8
S2140010D013040500E30C05F6B7070001636CF50280
S2140010E01305CB00EF10106D1305A000EF3010476E
S2140010F01375F40FEF309046135584001375F50FF3
S214001100EF30D045135504011375F50FEF30104539
S2140011106FF0DFF31305E000EF30504413053004A2
S214001120EF30D0439305040013054100EF0000574D
S21400113013058A02EF10106823A6518B6FF09FF3F9
S214001140638807001305D00023A6018AEF301041FC
S21400115013054100EF00000D930505001305C905B2
S214001160EF1050656FF09FEE3701050097210100E4
S2140011709381C1E413000000EFF09FE81300000025
S2140011806FF0DFFF130101FF23261100EF309030D0
S2140011908320C1001375150013010101678000004C
S2140011A01377F5009307F0006316F70013558500D4
S2140011B067800000130101FF1305A000232611001D
S2140011C0EF30D0398320C100130500001301010160
S2140011D067800000130101FF232021010329050079
S2140011E023248100232291002326110013040500E6
S2140011F0930400001304140063CE24018320C1006E
S2140012000324810083244100032901001301010106
S214001210678000000345340093841400EF301034D8
S2140012206FF05FFD130101F5232E31098329850038
S2140012302326110A2324810A2320210B0324450098
S21400124013090500232C41092322910A232A510958
S214001250232861092326710923248109232C3103BD
S214001260EF300034032649008325810393060000EF
S2140012701305C103EF2080168327C103032A010448
S2140012806390071883274104B389890037440F0009
S214001290232CF102EF30501F93040500130404249E
S2140012A0930B2000130C10008327810363FA371575
S2140012B003264900930600009305810313050102E7
S2140012C0EF20004713060001930501021305810471
S2140012D0EF30D021EF30101C1375150023A8A18A1B
S2140012E0630E0504EF300027130704009307000081
S2140012F01306003C9306000013050A009305000041
S214001300EF00C034EF305012130500008320C10AEE
S2140013100324810A8324410A0329010A8329C10977
S214001320032A8109832A4109032B0109832BC1085B
S214001330032C81081301010B6780000003260105BA
S21400134063020604130704009307000093060000D8
S21400135013050A0093050000EF00402F930A0500CE
S214001360EF30901293850400EF00000A9305050005
S21400137013850A00EF00C009EF30100BEF30D010D5
S2140013809304050013058104EF30C02D83278104E4
S214001390639677039305810413058105EF300031CA
S2140013A0130640019305810513050100EF30101464
S2140013B013050100EFF01FE26FF01FF3639487013F
S2140013C00324410513058104EF20107903278104C7
S2140013D093073000E30AF7EC930581041305C10672
S2140013E0EF30C02C130640019305C106130501001B
S2140013F0EF30D00F13050100EFF0DFDD6FF0DFEA0E
S214001400130510006FF09FF03305B54067800000AD
S21400141063F6A5003305B54067800000130500009D
S21400142067800000130101FF232481001387060054
S2140014301384060093060600138605009305050030
S214001440370501001305C50623261100EF10903658
S2140014508320C10013050400032481001301010149
S21400146067800000130101FF232481001387060014
S21400147013840600930606001386050093050500F0
S214001480370501001305C50623261100EF1090321C
S2140014908320C10013050400032481001301010109
S2140014A067800000130101FF2324810013870600D4
S2140014B013840600930606001386050093050500B0
S2140014C0370501001305C50623261100EF10902EE0
S2140014D08320C100130504000324810013010101C9
S2140014E067800000130101FF23248100232291005E
S2140014F0130407009384060013870600930606006D
S21400150013860500930505003705010093070400C0
S2140015101305050823261100EF10D0298320C100EB
S21400152093050400032481001385040083244100EE
S2140015301301010167800000130101FF23248100CD
S214001540138706001384060093060600138605001C
S21400155093050500370501001305C506232611006F
S214001560EF1050258320C1001305040003248100DA
S2140015701301010167800000130101FF232481008D
S21400158013870600138406009306060013860500DC
S21400159093050500370501001305C506232611002F
S2140015A0EF1050218320C10013050400032481009E
S2140015B01301010167800000130101FF232481004D
S2140015C0138706001384060093060600138605009C
S2140015D093050500370501001305C50623261100EF
S2140015E0EF10501D8320C100130504000324810062
S2140015F01301010167800000130101FF232481000D
S2140016002322910013040700938406001387060024
S21400161093060600138605009305050037050100AE
S214001620930704001305050823261100EF109018F1
S2140016308320C10093050400032481001385040061
S214001640832441001301010167800000130101FF9C
S21400165023248100232291001384050093040500AF
S214001660938507001305070023261100EF60004D41
S2140016701306200393060000EF60404C1386040018
S21400168093060400EF30C07C8320C1000324810051
S214001690832441001301010167800000130101FF4C
S2140016A0B70700012324810023261100232291007E
S2140016B09387E7FF1304050063E2B70403A5818A56
S2140016C0B70500019385F5FFEF3000226308050299
S2140016D083A7818A130700002300E4002322A400C6
S2140016E08320C1002324F400130504000324810092
S2140016F08324410013010101678000001307F00FE7
S21400170013050000930700006FF01FFD8326850079
S21400171003264500834505003705010013054509E6
S2140017206F1050096376D600B385C5002380A500E8
S2140017306780000067800000130101FD23229102EC
S21400174023202103232E3101232C4101232A51017A
S2140017502328610123267101232481019384070035
S21400176023261102232481022322910193F73800B5
S214001770130A0500938A050013090600138B06005A
S214001780930B070093090800138C0800638407086E
S21400179013040600338484001305040033069440C3
S2140017A063900408137C2C003304244163140C0A51
S2140017B08320C102032481028324410203290102FB
S2140017C08329C101032A8101832A4101032B0101D8
S2140017D0832BC100032C8100832C410013010103DD
S2140017E06780000093060B0093850A00130500022D
S2140017F0E7000A001304140033069401E36434FF80
S2140018001304000063E499003384994033042401F0
S2140018106FF05FF813840400B30C96406FF0DFFDA2
S2140018209384F4FFB3879B0003C5070093060B0061
S21400183093850A00E7000A006FF01FF613060500FE
S21400184093060B0093850A0013050002E7000A00C2
S2140018501304140033058900E36234FF6FF05FF56C
S2140018601383080083288100130E0800832E0100CE
S21400187013FF280003284100631A0F0413FF180003
S214001880630C0800630A0F0063160E0093FFC8007F
S21400189063840F001308F8FF930F000293020003FF
S2140018A06F004001638AF701B303F70023805300FB
S2140018B093871700E3E8D7FF630A0F00130F0002B1
S2140018C0930F000363F407016392E70513FF080113
S2140018D063080F0813FF084063140F0463820704AD
S2140018E06384D701639E0703938EF7FF63880E0217
S2140018F0130F00019387E7FF6308E30393072000B5
S214001900630CF30A93870E006F008004B302F7009F
S2140019102380F201938717006FF0DFFA9307000029
S214001920930E0001631CD30713F30802631A030423
S21400193013030002638A67043303F700930E8007DD
S2140019402300D3019387170013030002638E6702F8
S2140019503303F700930E00032300D3019387170089
S2140019601303000263826702630C0E043303F7005E
S214001970130ED0022300C301938717006F000001E7
S2140019801303000263966700930700026FF0DFDA26
S2140019903303F700930E80056FF09FFA930E200036
S2140019A0E314D3FB13030002E38067FE3303F70060
S2140019B0930E20066FF0DFF893870E006FF01FFF80
S2140019C013FE480063080E003303F700130EB00240
S2140019D06FF05FFA13FE8800E30A0EFA330EF70084
S2140019E023006E006FF05FF9130101F8232C8106C7
S2140019F0232631072322510723206107232E710552
S214001A00232C81052326B105232E1106232A9106B1
S214001A102328210723244107232A91052328A105EB
S214001A20232CA100232EB10083294108930A060027
S214001A30138B060013040700938B0700930D080012
S214001A40138C08006314070093F9F9FE13F7094096
S214001A50630407006306040613D7590013771700BC
S214001A60930410066304070093041004130904008B
S214001A70130A010213040000130D9000938464FF00
S214001A80930C000293850D0013050900EF60C01843
S214001A901377F50F6362AD0A130707031377F70F83
S214001AA02300EA0093850D001305090013041400B3
S214001AB0EF6000126366B901130A1A00631A9407EE
S214001AC0832701088325C1010325810123243101D1
S214001AD02322F1002320810193880D0013880B0038
S214001AE0930704001307010293060B0013860A00EF
S214001AF0EFF01FD78320C107032481078324410703
S214001B00032901078329C106032A8106832A410681
S214001B10032B0106832BC105032C8105832C41056D
S214001B20032D0105832DC104130101086780000001
S214001B30130905006FF01FF5330797006FF01FF6C7
S214001B40130101F7232821072324410723225107E5
S214001B50232C8105232A91052328A1052326B105D8
S214001B60138A0600232E1106232C8106232A9106AB
S214001B702326310723206107232E7105232AA1007F
S214001B80232CB100232EC10023261109B366F700CB
S214001B90032C01090329C109930D0700138D0700C3
S214001BA0930A0800938C0800639406001379F9FEE4
S214001BB09377094063860700930400006380060855
S214001BC09357590093F71700130410066384070011
S214001BD0130410049309010293040000930B900071
S214001BE0130464FF130B000213860C0093060C000C
S214001BF013850D0093050D00EF30D0011373F50F1C
S214001C0063EE6B0A130303031373F30F2380690059
S214001C1013860C0093060C0013850D0093050D002B
S214001C2093841400EF30C022636A8D016314AC0104
S214001C3063E69D0193891900639C64070327810965
S214001C400326C101832581012322E10003274109E0
S214001C5003254101232421012320E10093880C0061
S214001C6013880A00938704001307010293060A00EC
S214001C70EFF01FBF8320C107032481078324410799
S214001C80032901078329C106032A8106832A410600
S214001C90032B0106832BC105032C8105832C4105EC
S214001CA0032D0105832DC10413010109678000007F
S214001CB0930D0500138D05006FF01FF333038300AB
S214001CC06FF09FF4130101F82328A105232CA1002F
S214001CD0232EB100130D06002324D102130607009D
S214001CE0938607001305070093850700232A9106AD
S214001CF0232631072324410723225107232A91054F
S214001D00232E1106232C8106232821072320610772
S214001D10232E7105232C81052326B105832A01086D
S214001D2093040700138A070093090800938C0800A1
S214001D30EF409032631C0502B727010003A6877B9D
S214001D4083A6C77B1385040093050A00EF409039ED
S214001D50634EA00003A6818083A6C180138504007D
S214001D6093050A00EF40D045635205060324810719
S214001D7023205109832681028325C1010325810181
S214001D808320C10703290107832A4106032B010686
S214001D90832BC105032C8105832DC10493880C0079
S214001DA013880900832C41058329C1061387040084
S214001DB093070A0083244107032A810613060D00B1
S214001DC0032D0105130101086F00004713060000EC
S214001DD0930600001385040093050A00EF40503E6A
S214001DE0138C040013040A006356050037040080B1
S214001DF03344440193FB0A4063940B00930960004C
S214001E00135544011375F57F130515C0EF50503E6A
S214001E1003A6018183A64181EF40504803A6818135
S214001E2083A6C181EF30102C1317C4001357C700C8
S214001E3003A6018283A64182B707F03FB3E7E70017
S214001E40930D05001389050013850400938507008C
S214001E50EF50C02F03A6818283A6C182EF401044B4
S214001E60130605009386050013850D0093050900EB
S214001E70EF305027EF50102813090500EF50503769
S214001E8003A6018383A64183130B0500938D0500EB
S214001E90EF40D04003A6818383A6C183EF30902411
S214001EA0EF50502503A6018483A641842320A10277
S214001EB093850D0013050B00EF40503E130B0500F5
S214001EC003250102938D0500EF50903203A681840E
S214001ED083A6C184EF40903C130605009386050058
S214001EE013050B0093850D00EF50402613060500E2
S214001EF0938605002328A1022326B102EF40103A5C
S214001F00032701038327C102930D0500130607006C
S214001F109386070013050700138B050093850700BB
S214001F20232EE102232CF102EF30D01B03A60185FD
S214001F3083A64185232AA1022328B10213850D001A
S214001F4093050B00EF40401303A6818583A6C18549
S214001F50EF305019130605009386050013850D0013
S214001F6093050B00EF40401103A6018683A6418629
S214001F70EF305017130605009386050013850D00F5
S214001F8093050B00EF40400F832781030327C1030F
S214001F90938D05009386070083A5C1862326A1029C
S214001FA003A5818613060700EF50401A032EC102D0
S214001FB0130605009386050013050E0093850D0095
S214001FC0EF30501203234103832801031306050054
S214001FD0938605001305030093850800EF40C009AB
S214001FE003A6018783A64187EF30D00F832701021F
S214001FF093080000138608009387F73F139747015E
S21400200093060700EF409029138604009306040009
S2140020102320A102938D0500EF40D00C83270102F8
S214002020634CA01A2322B1039307600C930D390664
S214002030B3BDB70193974A01938D4D0063D607044D
S21400204003A6818783A6C187138504009305040031
S214002050EF4050096348051A03A6018883A6418805
S2140020601385040093050400EF409015635C051883
S21400207063563919338929419309F9FF93EA0A40CF
S214002080930D0000130900009308000063F49D01FF
S214002090B388BC4193FB2A0063860B0063840D0063
S2140020A09308000063040902032601028326410206
S2140020B0930504001385040023261103EF30D07B1C
S2140020C08328C102130C05001384050013060000C4
S2140020D0930600001385040093050A0023201103CD
S2140020E0EF40100E8328010263560500B7070080F4
S2140020F033C48700B7F7FFFF832681028325C1011B
S214002100032581019387F77FB3F7FA002320F100B8
S21400211013060D001388090013070C00930704002C
S214002120EF0080111306050063880D0693FA0A0275
S2140021301305500663840A001305500483268102A3
S2140021408325C1018327810113041600938DFDFFAB
S214002150E78007001357F941B34627013387E64067
S2140021608325C10183268102032581019307500040
S214002170130604002322F1002320B1019308000077
S2140021801308A0009357F901EFF01F861306050009
S2140021903304A541639C0B088320C10703248107F1
S2140021A083244107032901078329C106032A8106E0
S2140021B0832A4106032B0106832BC105032C8105C8
S2140021C0832C4105032D0105832DC104130506004C
S2140021D0130101086780000003A6818583A6C185D8
S2140021E01385070093850D00EF3010691309F9FF7A
S2140021F02320A1022322B1026FF01FE393090000FF
S2140022006FF0DFE7E38209E8E3800BE89389F9FFE4
S2140022106FF09FE7832681028325C1018327810112
S2140022201305000213041400E780070033068D0030
S214002230E36294FF6FF05FF6130101F82324A10018
S2140022402326B1002328C100232AD1001306070045
S214002250938607001305070093850700232C810645
S214002260232A9106232821072322510723206107CA
S214002270232E11062326310723244107232E71051A
S214002280232C8105232A91052328A1052326B105A1
S214002290032B0108930407001384070013090800A2
S2140022A0938A0800EF40405B63020506370701008B
S2140022B093080B0013880A00930730001307070ED5
S2140022C00324810783264101032601018325C100DB
S2140022D0032581008320C1078324410703290107C2
S2140022E08329C106032A8106832A4106032B010699
S2140022F0832BC105032C8105832C4105032D010585
S214002300832DC104130101086FF00FC303A681805B
S21400231083A6C1801385040093050400EF40406A3D
S214002320635E05003707010093080B0013880A0058
S214002330930740001307470E6FF09FF8B72701007A
S21400234003A6877B83A6C77B13850400930504003A
S214002350EF404059635AA00293774B00638E070004
S214002360370701001307470D9307400093080B003B
S21400237013880A006FF0DFF4370701001307C70D54
S214002380930730006FF09FFE03A6818883A6C1885E
S2140023901385040093050400EF40C054634EA0006C
S2140023A003A6018983A641891385040093050400CA
S2140023B0EF4000616352050693070400032481077B
S2140023C02320610983264101032601018325C100DC
S2140023D0032581008320C1078329C106032A8106BD
S2140023E0032B0106832BC105032C8105832C410595
S2140023F0032D0105832DC10493880A0013080900E4
S214002400832A410603290107138704008324410712
S214002410130101086FF01F8B1306000093060000DF
S2140024201385040093050400EF408059930C0000C8
S2140024306352050213860400930604001305000089
S21400244093050000EF4090509304050013840500A8
S214002450930C1000137C0B40930B6000630C0C0273
S2140024609307900063F4271713070102930679FF7A
S214002470130C00001306000393050002130C1C0047
S2140024802300C700B30B89416306BC00130717007F
S214002490E316DCFE9305040013850400EF50804528
S2140024A03707010093963B00130787373307D7009B
S2140024B08327070003284700130A0500232CF10092
S2140024C0232E0101EF50C052130605009386050027
S2140024D01385040093050400EF405047032681014E
S2140024E08326C101EF40805B138905009309050030
S2140024F0EF504048130D0500EF50005A1306050034
S214002500938605001385090093050900EF401044E3
S21400251003A6818383A6C183930D050093890500D6
S214002520EF40403C635AA00A130D1D0013050D0032
S214002530EF5080561306050093860500032581019B
S2140025408325C101EF40C0476346A000130A1A0066
S214002550130D000063880B0A130400029304900016
S214002560630C8C02130C1C0093070C029305A0004E
S21400257013050D0033892700EF50006A1305050385
S214002580A30FA9FE9305A00013050D00938BFBFF78
S214002590EF50006463E8A411B30B7C0193060002BD
S2140025A013060003630CDC0813071C0093070C02D9
S2140025B0631E7C0F93060102B387D7009306E002E2
S2140025C02380D7FE130C07006F004007930B09000B
S2140025D0130C00006FF01FEC03A6818383A6C18353
S2140025E013850D0093850900EF40803DE34405F612
S2140025F063060D0093761D00E38E06F4130D1D0092
S2140026006FF05FF513050A00EF50803E13060500D5
S214002610938605001385040093050400EF401033ED
S21400262003A6818383A6C183EF40803963480500F3
S21400263013771A0063040700130A1A001304000233
S214002640630C8C02130C1C0093070C029305A0006D
S21400265013050A00B3842700EF50405F13050503F7
S214002660A38FA4FE9305A00013050A00EF50C055E3
S214002670130A0500E31605FC13773B0093061000CB
S214002680631AD70A63880A0A63960C001377CB008E
S21400269063040700938AFAFF1307000293060003F9
S2140026A06F00C002130D05006FF09FEBB387270085
S2140026B02380C700130C07006FF0DFEE93070C02B1
S2140026C0338627002300D600130C1C0063745C07B7
S2140026D0E316ECFE83264101032601018325C10093
S2140026E00325810093080B0013880A0093070C004B
S2140026F013070102EFF04F848320C10703248107EC
S21400270083244107032901078329C106032A81067A
S214002710832A4106032B0106832BC105032C810562
S214002720832C4105032D0105832DC10413010108E7
S2140027306780000013070002E30EECF863800C02CB
S21400274093070C02130701023387E7009306D002B3
S2140027502300D7FE130C1C006FF0DFF793764B00B8
S214002760638C060093070C02130701023387E70009
S2140027709306B0026FF0DFFD93768B00E38C06F4D1
S21400278093070C0293060102B386D7002380E6FE69
S2140027906FF05FFC630405006F200059678000003F
S2140027A06308050083A7050083A54500678007002A
S2140027B067800000130101FA232A910423282105CB
S2140027C02326310523225105232E1104232C8104B0
S2140027D02324410523206105232E7103232C810326
S2140027E0232A91032328A1032326B103232AB10019
S2140027F09309060093840600930A07001309050050
S214002800639605003719000013094973930D0000FD
S214002810930C30026F00C073930750029384140029
S214002820630CF5008325410113841D00938609007F
S21400283013860D006F00C066130300001307B00276
S21400284083C7040093861400638AE7046366F7026E
S214002850130600026388C704638A9705138707FD7B
S2140028601377F70F130690006366E60A130A000054
S214002870930690006F0080051306D002638CC70095
S21400288013060003E39CC7FC13631300938406003F
S2140028906FF01FFB136323006FF05FFF13634300AB
S2140028A06FF0DFFE136383006FF05FFE13630301B8
S2140028B06FF0DFFD93172A00B38747019397170041
S2140028C0938707FD330AF7009304060003C7040046
S2140028D013861400930707FD93F7F70FE3FCF6FC47
S2140028E003C704009307E002130B00006314F70A03
S2140028F083C614001306900093871400138706FD02
S2140029001377F70F136303406366E606130690001B
S2140029106F0080041307A002130A0000E392E7FC8E
S21400292003AA0A0093874A0063560A00136323002B
S214002930330A404193840600938A07006FF05FFADB
S21400294093172B00B387670193971700938707FDAC
S214002950338BF6009387050083C607009385170020
S214002960138706FD1377F70FE37CE6FC93840700D6
S2140029706F0040021307A002E39AE6FE03AB0A00CC
S21400298093874A0063540B00130B000093842400C3
S214002990938A070083C704009306C00613871400B3
S2140029A06386D70663E8F60493068006638AD7062E
S2140029B09306A0066382D708138704000345070022
S2140029C093075006930417006306F51263EEA70EEE
S2140029D0930760046300F52863ECA70A9307500288
S2140029E06306F54A93075004E31EF5E213630302F9
S2140029F06F004010930640076386D7009306A00733
S214002A00E39CD7FA136303106FF05FFB83C61400D2
S214002A10E39AF6FE13630330138724006FF01FFA61
S214002A2083C614006386F600136303086FF01FF96D
S214002A301363030C6FF05FFE136303206FF01FF841
S214002A40130775F993071000B397E7003797000050
S214002A5013071704B3F7E700639A070C93073007CA
S214002A606308F52E93070007E31EF5DA13631302D7
S214002A709307800003A70A0013844A0023226100FC
S214002A802320F10093080B00130800016F00801943
S214002A90930730066300F520930740066304F50AA3
S214002AA093078005630AF50A930720066300F5403E
S214002AB093077004E318F5D6B717000093870780CE
S214002AC03363F3006FF09FF293068007E3ECA6D41F
S214002AD093078006E3E6A7F693076006630EF516EF
S214002AE093077006E310F5D4B717000093870780A6
S214002AF03363F30093877A0093F787FF03A70700F3
S214002B00938A87008325410183A7470093080A001C
S214002B102320610013080B009386090013860D001E
S214002B2013050900EFF00F9A6F0040169307F006A2
S214002B306312F538130880006F0080021308000146
S214002B406306D5001373F3FE1308A0009307400630
S214002B50630CF5366F00C000136303021308000110
S214002B60137333FF6F0040369377031013844A00C5
S214002B70638E070283A70A0013D7F741B346F70010
S214002B80232261002320410193080B0093D7F7010D
S214002B903387E640832541019386090013860D009E
S214002BA013050900EFE05FE46F00003A13770304B3
S214002BB083A70A006306070093F7F70F6FF0DFFBA3
S214002BC013770308E30A07FA9397070193D7074199
S214002BD06FF09FFA638A0702938A7A0093FA8AFF55
S214002BE003A70A0083A74A009308080013848A00F4
S214002BF023266100232441012322610123200100B2
S214002C00130800006F0000339377031013844A0004
S214002C10638E070003A70A002322610023204101D8
S214002C2093080B00930700006FF0DFF6937703041A
S214002C3003A70A00638607001377F70F6FF0DFFD20
S214002C4093770308E38A07FC131707011357070156
S214002C506FF09FFC1363030293877A0093F787FF56
S214002C6003A70700938A87008325410183A74700AF
S214002C7093080A002320610013080B0093860900BE
S214002C8013860D0013050900EFF00FDB930D05000A
S214002C906F00002C13742300930B100063160404BB
S214002CA0130D00006F004001832541019386090043
S214002CB013050002E70009003306BD01130D1D00D1
S214002CC0E3644DFF333740019307000063040A00B6
S214002CD09307FAFFB38DFD009307200063040700F7
S214002CE093071A00938B07008325410103C50A004A
S214002CF09386090013860D00138D4A00138B1D0062
S214002D00E70009006300040413840B0013060B009D
S214002D106F00000283254101938609001305000217
S214002D20930A1600E70009001304140013860A002D
S214002D30E36244FF9306000063647A01B3067A41B7
S214002D40330BDB00930A0D00930D0B006F00402041
S214002D5003AC0A00138D4A009307F0FF63040B00D0
S214002D6093070B003307FC0093070C0083C607008D
S214002D70638406006316F702937A0340B38B874199
S214002D8063860A0063747B01930B0B0013742300A5
S214002D906310040613860D003383BB416F004003A7
S214002DA0938717006FF09FFC8325410113071600D9
S214002DB0232E6100232CE1009386090013050002F0
S214002DC0E7000900032781010323C101130607005A
S214002DD03307C300E36A47FD1307000063647A0104
S214002DE033077A4193871B00B38DED00B30BF700D2
S214002DF013870D006F008002138B060083254101A8
S214002E0013031700232C610013060700938609009E
S214002E10E70009000323810113070300B306B74147
S214002E20B306DC0003C5060063080500E3880AFC59
S214002E309306FBFFE3120BFC63040404130607006F
S214002E403384EB406F00400283254101232CE100D0
S214002E509386090013050002930A1600E70009008E
S214002E600327810113860A00B3068600E3EE46FDBB
S214002E709306000063647A01B3067A413307D700ED
S214002E80930A0D00930D07006F00800C8325410107
S214002E9013841D009386090013860D001305500247
S214002EA0E7000900930D04006F00800A1308200055
S214002EB06FF01FCBE3E4A7C8930790061373F3FEE7
S214002EC01308A000E314F5C8937703406384070053
S214002ED01373E3FF13079006937703206306E5005A
S214002EE013074006E318E5CEE38007C8938A7A0006
S214002EF093FA8AFF83A54A0083A60A00930808006F
S214002F0013D6F541B346D600B347B6003387C6405E
S214002F10B3B6E600B387C74013848A002326610051
S214002F2023244101232261012320010013D8F50147
S214002F30B387D740832541019386090013860D0089
S214002F4013050900EFE0DFBF930D0500930A0400A8
S214002F5003C50400E312058C13860D0063E43D01EF
S214002F601386F9FF832541019386090013050000A7
S214002F70E70009008320C105032481058324410559
S214002F80032901058329C104032A8104832A4104F5
S214002F90032B0104832BC103032C8103832C4103E1
S214002FA0032D010313850D00832DC10213010106B5
S214002FB067800000130101FC2326D102930605005A
S214002FC0372500002322B1022324C1022328E10270
S214002FD093058100130741021306F0FF1305457998
S214002FE0232E1100232AF102232C0103232E110382
S214002FF02326E100EFF00FFC8320C101130101043A
S21400300067800000130101FC2326D1029386050089
S21400301093050500371500002324C1022328E1028A
S2140030201306F0FF1307810213054572232E1100C5
S214003030232AF102232C0103232E11032326E10069
S214003040EFF04FF78320C1011301010467800000F1
S214003050130101FC2326D102930606001386050001
S21400306093050500371500002328E1021305457275
S2140030701307C102232E1100232AF102232C010379
S214003080232E11032326E100EFF0CFF28320C101A7
S2140030901301010467800000130101FE930605007A
S2140030A037250000138705001306F0FF9305C100BF
S2140030B013054579232E1100EFF0CFEF8320C101D1
S2140030C013010102678000001387060093060600BE
S2140030D01386050093050500371500001305457295
S2140030E06FF04FED130101FC2324A10037250000EB
S2140030F02326D1022328E1022326B1001307C102AA
S21400310093060600930581001306F0FF1305057A63
S214003110232E1100232AF102232C0103232E110350
S2140031202322E100EFF00FE98320C101130101041F
S21400313067800000131535003305B50093170501A9
S21400314093D707411305000063C6070203A7018A49
S2140031501307F7FF1367873F1305070013170701C9
S2140031601357074163D4E7001385070013150501BD
S2140031701355054113150501135505016780000019
S21400318013158501130101FF1355854123261100F0
S2140031902324810023229100EFF0DFF993543500B9
S2140031A09394040193D40401130405009305C0000E
S2140031B013850400EF40502603A7018A93170501E4
S2140031C093D70701939737001307F7FF93970701E5
S2140031D03374E40093D70701B3E78700939707019A
S2140031E093D707013704010093971700138504004F
S2140031F01304843C9305C0003304F400EF40501DD4
S2140032009307F5FF035504008320C10003248100C3
S2140032109397B7003365F500131505018324410025
S2140032201355050113010101678000001315850180
S214003230130101FF13558541232611002324810025
S2140032402322910023202101EFF0DFEE13593500F1
S2140032501319090113590901930405009305C000C9
S21400326013050900EF40501B131405019305C00019
S21400327013050900EF40D01583A7018A13540401F3
S214003280131434009387F7FF13140401B3F4F40007
S2140032901354040133649400131404011317050136
S2140032A013540401B7070100135707011314140041
S2140032B09387873CB38787009306B7FF03D5070C31
S2140032C063D4060293075000B387E7403355F500F2
S2140032D08320C100032481008324410003290100C8
S2140032E013010101678000003315D5006FF05FFE03
S2140032F0130101FF23261100EFF05FF3930505008D
S2140033003705CF03EF40D00C8320C100135555007E
S214003310131505011355050113010101678000000F
S214003320130101FF23261100EFF09FFC8320C1004C
S2140033301355450013150501135505011301010129
S21400334067800000130101FF23261100EFF05FFDE8
S2140033508320C100135515001315050113550501EB
S2140033601301010167800000130101FF23261100ED
S214003370EFF01FF88320C100135575001375F50F85
S2140033801301010167800000130101FD232481025F
S2140033902326B100232611022322910213040500DE
S2140033A0EF004074B757726B9387D7448325C100EC
S2140033B0631AF50013054400EF00407D93040500F2
S2140033C0930584008320C102032481021385040030
S2140033D0832441021301010367800000130101FEEC
S2140033E0232821011309050013850500232A9100CF
S2140033F0232E1100232C810093840500EF00806E9D
S214003400B75768649387D7446312F506138544005C
S214003410EF00406D13858400EF00806B6312050695
S2140034201385A400EF008076130405001385E400DE
S214003430EFF09FF5638C050413170401135707017B
S214003440930700008320C101032481012320F90093
S2140034502322E9002324B90083244101130509002F
S214003460032901011301010267800000B70701006C
S2140034709387C70E13070000930500006FF09FFCAC
S214003480B70701009387C7106FF0DFFEB70701008C
S21400349093870715130700006FF0DFFA9306050001
S2140034A0130640001305000083A7060003C70700A5
S2140034B09387170023A0F6009315870193D58541BF
S2140034C09317750063C605003305F7006780000094
S2140034D01377F7071306F6FF3305F700E31606FC27
S2140034E06780000083A70500130101FE232C8100DE
S2140034F0232A910023282101232E1100232631019F
S21400350083C907009387170023A0F50093040500DE
S214003510138505001384050013090600EFF01FF855
S2140035209307F002638EF90693071005032704003D
S214003530639EF90483470700834617001307370086
S2140035409397070193968600B3E7D7008346F7FF65
S2140035502320E40013071000B3E7D7008320C1013F
S2140035600324810123A4240123A0E40023A2040051
S21400357023A6F400032901018329C1001385040052
S2140035808324410113010102678000003307A7006E
S2140035902320E40013073000930700006FF01FFCA1
S2140035A0130720006FF05FFF03A8050093080005CF
S2140035B0834708006384171563E0F8069308B00095
S2140035C06386171163ECF802638C070893086000A3
S2140035D0638A170B930700001306000013073000DA
S2140035E01308280023A005012320E5002322C50098
S2140035F02324D5002326F5006780000093080002E8
S214003600638C170D13074004E396E7FC8347180006
S2140036101307C0006FF0DFFC93088007638E170F58
S21400362063E2F802930840066380170F930850067B
S214003630E39217FB834718003307C7002309F700F8
S2140036406FF05FF913079007638EE70C1307B00758
S214003650E392E7F8930700001307B0006FF05FF8F7
S214003660131616003307C700834707002310F7001A
S2140036700346180013168600B3E7C7002310F700AA
S2140036806FF05FF53307C70083072701834887017C
S2140036909397770093F8F807B3E717019397070116
S2140036A093D70741638E0700374600001306F6FFE0
S2140036B0E392C7F223090700230C07006FF09FF17F
S2140036C083471800130780006FF09FF183471800A8
S2140036D0130760006FF0DFF0131616003307C700FD
S2140036E08357070093F707F09397070193D70701CF
S2140036F02310F700034618006FF01FF883471800E2
S2140037001307D0006FF0DFED834718003307C700BC
S214003710230CF7006FF01FEC930700001307A000C0
S2140037206FF01FEC93070000130790006FF05FEB3D
S214003730130101FE232C81001304050013850500E8
S214003740232A910023282101938405002326310192
S214003750232E110023244101EFF05FD483A7040039
S2140037601306000C1309050083C60700138717000D
S21400377023A0E40013F7060F93F9F6006308C710BA
S2140037806368E6061306000A6304C70C6362E60471
S21400379093F6060E130700086390E6049386270048
S2140037A003C7170023A0D40083C62700131787007B
S2140037B09387370023A0F40023200400232234013B
S2140037C02324A4003367D7002326E4006F000006F6
S2140037D09307000B6300F704930730002320F400E0
S2140037E02322040023242401232604006F0000045F
S2140037F01306000E6302C7061306000F630AC70E01
S2140038009306000D93872700E318D7FC23A0F40047
S2140038106FF09FFC930605001387C18B1386090083
S2140038209385040013050400EFF01FD88320C10120
S21400383013050400032481018324410103290101A7
S2140038408329C100032A810013010102678000005A
S214003850938737006FF09FFB03C7270083C61700C8
S21400386093873700131777003367D70013170701BE
S21400387023A0F40093077000135707412320F40099
S214003880232234012324A4006FF01FF49397190019
S214003890138AC18B330AFA0003560A003705010063
S2140038A09385090013054517EFF0CFF037050100A3
S2140038B013050519EFF00FF083A704002322340147
S2140038C02324240103C707009387170023A0F400CE
S2140038D083570A00B337F00093977700B3E7E70003
S2140038E0130750002320E4002326F4006FF01FF493
S2140038F09307700F638EF6029307F00F6384F60A41
S214003900E39CE6EC13850400EFF05FB993075000E4
S214003910630AF5029306700F03A7040093071700C7
S2140039200347070023A0F400E308D7FE6FF0DFEAA2
S21400393013850400EFF09FB683A70400B387A700A3
S2140039406FF0DFEC03A7040023242401834607005E
S21400395083471700034627008345370013075700A1
S21400396023A0E400130740002320E40013D74600FA
S2140039702322E400371700009397070193F5F5001C
S21400398093968600130707F0B3E7B700B3F6E60092
S21400399013164600B3E7D7001376F60FB3E7C70053
S2140039A06FF09FF4130605009385040013050400CA
S2140039B0EFF05FB36FF09FE7832685000326450090
S2140039C08325050037050100130545196FF08FDEC6
S2140039D0B727010093878777B387A7002380B700B0
S2140039E067800000130101FF2324810013040500F3
S2140039F0370501001305051E23261100232291001A
S214003A0093840500EFF00FDB370501001305051959
S214003A10EFF04FDAB727010093878777B3878700E1
S214003A2083C507001305100093F5F50F63840400A3
S214003A301385040013150501B7E7FFFF13550501AD
S214003A403305F500EF40400DB72500009385F5FFE0
S214003A5013153500EF404017131505011314140015
S214003A609387C18D33848700135505418320C10099
S214003A702310A400032481008324410013010101C4
S214003A8067800000131515009387C18DB387A700C4
S214003A9003D507001315050113550541678000007F
S214003AA093071500370501009397570013058554B3
S214003AB03305F50067800000930715003705010001
S214003AC093975700130585543305F500678000006B
S214003AD083471500034705009397870033E5E70003
S214003AE0678000000347150083470500131787000B
S214003AF03367F70083472500034535009397070192
S214003B00B3E7E700131585013365F500678000000D
S214003B1083471500034705008346550093978700A3
S214003B20B3E7E70003472500939686000346350073
S214003B30131707013367F700834745008345750071
S214003B4013168601B3E6F600834765009395850154
S214003B503365E60093970701B3E7D700B3E5F500B2
S214003B60678000008347150003470500939787008A
S214003B70B3E7E7001395870093D787003365F50012
S214003B8013150501135505016780000083470500DE
S214003B90034715009397870113170701B3E7E7005C
S214003BA00347350003452500B3E7E70013158500F6
S214003BB033E5A7006780000083470500034715002C
S214003BC0834625009397870113170701B3E7E7009D
S214003BD093968600B3E7D7008346450003477500F3
S214003BE083453500939686013367D7008346550094
S214003BF003456500B3E5B700939606013367D70023
S214003C00131585003365A70067800000930505003F
S214003C10130580026F005047130101FF2324810023
S214003C2023261100B385A5009307F000A3840502A0
S214003C30A381F502238E05009305200013040500DA
S214003C40EFF01FD913050400032481008320C10070
S214003C50B7250000130101016FF0DFD8130101FF43
S214003C60232611002324810023229100130405003B
S214003C7093840500EFF01FE193050500138504000B
S214003C80EFF00FD09304050093558500130544FA12
S214003C9093F5F50F1375F50FEF00103F130404FAB4
S214003CA01375F40F032481008320C10093F5F40FED
S214003CB083244100130101016F00103D130101FF31
S214003CC023248100232611002322910093F7F50771
S214003CD03304A600639407028347940263960700A2
S214003CE0EFF0DFF2230B04008320C10003248100E1
S214003CF083244100130101016780000093D58500ED
S214003D0093F4F50793850400EFF05FF5834794027C
S214003D10230894006386070083476401E39607FC44
S214003D208345040013058002EF0010369307100049
S214003D30230BF4006FF05FFB130101FF23248100C7
S214003D4013040500130535001375F50F23229100A3
S214003D502320210193840500232611001309060061
S214003D60EFF05FD29307200093050500630EF90875
S214003D7063E8270563160906138504001314140068
S214003D80EFF00FD71374F40F9375F50F9304050037
S214003D9013050400EF00502F93D58400130414007D
S214003DA093F5F50F1375F40F032481008320C100EB
S214003DB08324410003290100130101016F00D02C68
S214003DC0930730006308F9048320C10003248100B0
S214003DD083244100032901001301010167800000CC
S214003DE013850400EFF00FD69375F50F1304050046
S214003DF01305B000EF0050299355840093F5F50F96
S214003E001305C0006FF05FFA13850400EFF04FD182
S214003E106FF09FFD13850400EFF00FD593050500A6
S214003E20130560006FF05FF8130101FF9307900021
S214003E302322F100930720012324F1009307400278
S214003E402326F1009307200063ECB700638E05007D
S214003E5013058500930500001375F50F6F00C0026B
S214003E60930730006396F5021315250093070501A6
S214003E703385270083452602834745FF13057000D8
S214003E80B3E5F5002301B602130101016F00D01F50
S214003E901301010167800000130101FF2324810044
S214003EA02322910023261100930720009304050087
S214003EB01384050063E2A702EFF05FD53304940095
S214003EC08320C100230B04000324810083244100C7
S214003ED0130101016780000093075000E3E0A7FE8E
S214003EE01305D5FF93172500B387F5001386050045
S214003EF083A547001375F50FEFF01FF36FF01FFC57
S214003F00130101FC9307E0032324F1009307D00379
S214003F102326F1009307B003232C81022328F10007
S214003F2013040500930770031305D5FF232AF10039
S214003F301375F50F9307F00223263103232CF100A7
S214003F40931925009307F001232EF100B3073601DD
S214003F502324410323225103232E110283AA470060
S214003F60232A91022328210393F7F507330A8600B4
S214003F70639E070283479A026398070093850A00A8
S214003F80EFF09FEA230B0A008320C103032481037A
S214003F9083244103032901038329C102032A8102E2
S214003FA0832A4102130101046780000093D585002F
S214003FB013F9F507930406009305090013860A0013
S214003FC0EFF09FD783479A0223082A0163860700EB
S214003FD083476A01E39A07FA130454009307200004
S214003FE01374F40F6384FA0663E057059305E00044
S214003FF063900A0693870902B389270003A789FE00
S21400400083C7240213050400B3F7E7002381F402F4
S21400401083453A02EF00500783C52402130570005B
S214004020EF0090066F00C000930730006388FA0028
S21400403093071000230BFA006FF01FF59387090211
S214004040B389270003A749FF6FF09FFB9305C000C5
S2140040501305D000EF00500393050001130504007C
S2140040606FF01FFCB307A6008387C70113D7850030
S2140040701377F7073307F7009307070013170701AF
S214004080135707419306F00763D4E6029307F00739
S214004090939787009397070193D7070193F5F50742
S2140040A0B3E5B7009307200063ECA7006FF01FC1CD
S2140040B013970701E35E07FC930700006FF05FFDB0
S2140040C09307500063E4A7006FF09FE3678000004B
S2140040D0130101FE232C8100232E1100232A9100B8
S2140040E023282101232631012324410193072000A0
S2140040F01304050063E2A70613F5F50FEFF0DF9B48
S214004100930405009309150013090003130A000918
S21400411083C50900330524011375F50F13094900FB
S214004120EF00807693891900E31449FF130404FB1B
S2140041301375F40F0324810183C594018320C10104
S21400414083244101032901018329C100032A810038
S214004150130101026F0040739307300063F4B70049
S214004160930500001304D4FF131424008320C10118
S21400417033068600032481012322B60083244101EE
S214004180032901018329C100032A810013010102CA
S214004190678000009307200063F0A706130101FF65
S2140041A093F5F507232481002322910013944500FC
S2140041B0B304A6003304B44083C764011304740830
S2140041C013547440232611001374F40F638A0700F7
S2140041D013055500930504001375F50FEF00C06A2C
S2140041E0A38184028320C10003248100832441002C
S2140041F0130101016780000067800000B717040CF8
S214004200130101FF938707802322F100B717050DDE
S21400421093871790138705002324F100B717060E1F
S214004220938727A0135707012326F1001377F70F6C
S2140042309306400093D7850093F5F50F630CD708D7
S21400424063E2E6041308200093F7F70F93162500A1
S214004250630A0705130830006302070763160700A2
S2140042603306A6002300B60013870601B306270010
S214004270B386F60003C546FF130505031375F50F51
S2140042806F00000B930660006306D7089306700065
S2140042906304D70A93065000630ED7041301010186
S2140042A06780000013870601B3062700B386F60072
S2140042B003C546FF130505046FF05FFC1387060170
S2140042C0B3062700B386F60003C546FF13050505AB
S2140042D06FF0DFFA131525001307050193F7F70FA4
S2140042E0330527003305F500034545FF130505068E
S2140042F06FF0DFF8131525001307050193F7F70F86
S214004300330527003305F500034545FF130505076C
S2140043106FF0DFF6131525001307050193F7F70F67
S214004320330527003305F500034545FF134505080B
S214004330130101016F0040551315250013070501F1
S21400434093F7F70F330527003305F500034545FFC0
S214004350130505FB6FF09FF2130101FE930705009E
S214004360232C810003A7070003244500232E1100F9
S214004370232A9100930680001375F40F630AD70E64
S21400438063ECE604930650006304D70C63E2E6028F
S2140043906300070A930640006302D7168320C10114
S2140043A00324810183244101130101026780000078
S2140043B09306600083A5C700B72401006316D70CD8
S2140043C0032481018320C10113864478832441019C
S2140043D0130101026FF01FDC9306C0006300D714C0
S2140043E063E4E602B72501009307900093854578BD
S2140043F06308F714032481018320C101832441014B
S214004400130101026FF05FA99306D000E318D7F8F6
S21400441083A7C700372701001374F40F13074778E4
S21400442033078700938707FC230EF7006FF01FF70C
S214004430032481018320C1018324410183A5C70091
S2140044403726010013064678130101026FF09FC15C
S214004450032481018320C1018324410183A5C70071
S2140044603726010013064678130101026FF05FC677
S214004470032481018320C1018324410183C5C70031
S214004480130101026FF0CFD49395050193D5050172
S2140044902326A1001374F40FEFF0CFD4938444784E
S2140044A0B387840003C76701E30A07EE0325C1004C
S2140044B083C507019307200063ECA700032481014E
S2140044C08320C10183244101130101026FF00FF91B
S2140044D01304D4FF13142400B3848400032481013E
S2140044E003A644008320C101832441011305D5FFA0
S2140044F01375F50F130101026FF01F840324810169
S2140045008320C1018324410183A5C700372601000B
S21400451013064678130101026FF05FCE83A7C7002B
S214004520372701001374F40F1307477893B707046F
S2140045303307870093B71700A304F7026FF01FE650
S214004540032481018320C101832441011301010258
S2140045506FF08FEC130101FE232C8100232A9100BB
S214004560232E110013040000930460002322810010
S2140045701305010013041400232001002324010066
S21400458023260100EFF05FDDE31294FE8320C101D5
S2140045900324810183244101130101026780000086
S2140045A0130101FE232C8100232A910023282101D8
S2140045B0232E1100130400001309900093046000DA
S2140045C02322810013050100130414002320210177
S2140045D02324010023260100EFF01FD8E31294FEE7
S2140045E08320C101032481018324410103290101A1
S2140045F013010102678000009307C00063EEA70066
S214004600B72701001315250093878754B387A700A3
S21400461003A5070067800000370501001305C51EC7
S21400462067800000130101FF2324810013040500A6
S2140046300325050023261100EFF01FFC0327C40006
S2140046408326840003264400032481008320C100BF
S21400465093050500370501001305451F13010101E9
S2140046606FE05F95130101FF832545002324810039
S21400467013040500370501001305C5232326110082
S214004680EFE05F9303250400EFF01FF70326C40056
S214004690032481008320C10093050500370501002F
S2140046A013054524130101016FE0DF9083A7050081
S2140046B003A74500130101FE232C8100232A910045
S2140046C023282101232E110013F9F70F23200100C0
S2140046D023220100232401002326010093F7F70F6D
S2140046E093065000130405009374F70F6388D70CE5
S2140046F063EAF606130710006388E70A130740000C
S2140047006384E70A638E070693070000130700001A
S2140047109306000013062000939646002320C4004C
S21400472093E61600930501001305440013060001E6
S21400473023012101A30191002310D1002322E100CF
S2140047402324F100EF00805A8320C10113050400E2
S214004750032481018324410103290101130101027D
S2140047606780000013076000638EE70C1307700075
S214004770E39CE7F803A7C500930700006F0000025C
S21400478083A6C50037060100130606F013978600B9
S2140047903377C70093D686003367D700930640006A
S2140047A0130660006FF05FF703A7C50093070000CD
S2140047B093065000130670006FF01FF69307200054
S2140047C003C5C50063E6E704EFF08FAD0347B50108
S2140047D08347C5018346E5011317870093970701B2
S2140047E03367F7008347D501939787013367F70050
S2140047F08347A5013367F7008347F5019397870042
S214004800B3E7D700930680001306A0006FF0DFF032
S2140048109307300063E2A702B727010013152500AF
S2140048209387C757B387A70083A7070003A7070088
S21400483083D747006FF01FFDB70701009387C73285
S2140048406FF0DFFE03A7C500930700009306300055
S214004850130650006FF05FECB7F5FA02130101FF84
S2140048609385050823261100EF30002B8320C10016
S214004870130101016F00403B1335350067800000CF
S2140048801305000067800000130101FF2324810048
S2140048902322910013860500930405001384050067
S2140048A0930505003705010013054535232611003D
S2140048B0EFE04FF03705010013050519EFE08FEF25
S2140048C0EF00803C13850400EF00403E1305040013
S2140048D0EF00C03F032481008320C10083244100F1
S2140048E0130101016F00403A130101B92328614505
S2140048F0371B000023202147232E3145232A51450C
S214004900232291452320A1452326114623248146B0
S21400491023229146232C4145232671452324814595
S214004920232EB1431309050093890500130D0000DB
S214004930930C1000930A4000130B1B02130A090085
S214004940930D000093040000930B1000130C20003E
S21400495013051000EF0080426304551563ECAA04AB
S214004960630495076304851313056000EF00003F9A
S214004970130D00008320C14603248146832441464C
S214004980032901468329C145032A8145832A4145D7
S214004990032B0145832BC144032C8144832C4144C3
S2140049A0832DC14313050D00032D01441301014758
S2140049B06780000093078001E318F5FA13051000DE
S2140049C0EF00C03B6FF05FFA130600082304A10255
S2140049D09307560013041000130510002326C10089
S2140049E02324F100EF008039930781023387870084
S2140049F0832781002300A700130414000326C100A8
S214004A00E36CF4FC8347A1020345910293C7F7FFCA
S214004A1093F7F70F631EF51C9306160093058102A5
S214004A20930700001308F0FF03C735001304800047
S214004A3013178700B3C7E7009397070193D70701BB
S214004A4013970701135707416356070413171700F8
S214004A5033476701931707011304F4FF93D7070141
S214004A60E31004FE9386F6FF93851500E39E06FB8F
S214004A706390071893F7F40F630EF50213055001C1
S214004A80EF00C02D930D04006FF09FEC130600405E
S214004A906FF0DFF393971700939707016FF0DFFB34
S214004AA013056000EF00802B13053004EF00002B89
S214004AB06FF0DFE8639A0410930730001307700066
S214004AC093068102B386F60083C60600639C060042
S214004AD093871700E396E7FE13056000EF000028B3
S214004AE06FF05FE91307B1029307C106834607001C
S214004AF013071700639C0606930700009305000241
S214004B0013060001B306F70083C606006386B600E8
S214004B106392C706930700019387074213070101B4
S214004B20B387E700238407BE93060002930781013C
S214004B3003C7070093871700E30CD7FE130D00008A
S214004B4013069000130707FD6370E60463FCA905CF
S214004B5013058001EF00802013058001EF00002080
S214004B6013051000EFF05FCF6FF09FE0E310F7F84B
S214004B706FF09FF8130581013305F5002300D5007B
S214004B80938717006FF01FF893162D00B386A601C3
S214004B909396160093871700338DE60003C7F7FF3A
S214004BA06FF05FFA13056000EF00401B130550011D
S214004BB063840B0013053004EF00401A930B0000CB
S214004BC0938414006FF01FECB30DCA00B3872D4119
S214004BD0E3E0F9F89305B10213050A00EF000011AF
S214004BE013056000EF008017138A0D006FF05FFD5D
S214004BF063860400938D1D00E3ECBAF513053004BC
S214004C00EF00C01513840D006FF0DFE7678000002B
S214004C1023000500232205002324050067800000EA
S214004C20678000006780000083A7818B639E070073
S214004C30B7C70002938787FF83A7070023AAF18AD6
S214004C409307100023ACF18A37C70002832787FF3B
S214004C5003A6418B130787FF93971700B387C740B8
S214004C603385A700832707006376F50083270700B0
S214004C70E3CE07FE83270700E37EF5FE83270700C3
S214004C8023AAF18A67800000B7C7000203A587FF42
S214004C90678000001305000067800000B707FFFF6D
S214004CA003A5070213751500678000003707FFFF8E
S214004CB0130707028327070093F71700E39C07FEF6
S214004CC0B707FFFF2382A702678000003707FFFFB2
S214004CD0130707028327070093F71700E39C07FED6
S214004CE0B707FFFF2384A702678000003306C500CE
S214004CF0930705006394C7006780000003C705009C
S214004D009387170093851500A38FE7FE6FF09FFE2D
S214004D103306C5006314C500678000002300B50095
S214004D20130515006FF01FFFB71700802380A7003C
S214004D30678000003707FFFF1307870083270700F9
S214004D4093F71700E38C07FEB707FFFF03C50700BE
S214004D506780000013050000678000003707FFFF2C
S214004D60130787008327070093F78700E39C07FE57
S214004D70B707FFFF2382A700678000006344050093
S214004D806FF05FFB67800000130101FEB707FFFFAF
S214004D90232601009387870083A70700232E110090
S214004DA0232C8100232A910093F7170063860704BB
S214004DB0B707FFFF83C7070093040500130410001E
S214004DC02306F100634E94000325C1008320C10131
S214004DD0032481018324410113010102678000003E
S214004DE0EFF05FF59307C100B38787002380A70025
S214004DF0130414006FF01FFD1305F0FF6FF01FFD86
S214004E00130101FE232C8100232A9100232E11007A
S214004E10930405002326010013040000634E94004B
S214004E208320C101032481010325C100832441019D
S214004E301301010267800000EFF0DFEF9307C10067
S214004E40B38787002380A700130414006FF01FFDAC
S214004E50130101FD232C4101232611022324810284
S214004E602322910223202103232E3101232A5101DC
S214004E702328610123267101232481012322910125
S214004E80130A050063940638B72701009309060045
S214004E90930405009387875C63F8C5123707010003
S214004EA0138905006378E6101337061013371700CA
S214004EB013173700B356E600B387D70083C707003B
S214004EC093060002B387E7003387F640638CF6004C
S214004ED03399E500B357FA00B319E60033E9270122
S214004EE0B314EA0093DA090193850A001305090052
S214004EF0139B0901EF20D04D135B0B0193050500B2
S214004F00130A050013050B00EF20104113040500DB
S214004F1093850A0013050900EF20105013150501AC
S214004F2013D704013367A70013090A00637E8700BE
S214004F303387E9001309FAFF636837016376870051
S214004F401309EAFF330737013304874093850A00C5
S214004F5013050400EF20D04793050500130A05004B
S214004F6013050B00EF20503B130B050093850A003A
S214004F7013050400EF20504A93940401131505010D
S214004F8093D40401B3E4A40013070A0063FC64018D
S214004F90B38499001307FAFF63E6340163F46401EF
S214004FA01307EAFF93170901B3E7E70013090000A8
S214004FB06F000012B706000113078001E37CD6EEEF
S214004FC0130700016FF01FEF13070000630C0600C5
S214004FD037070100637CE6121337061013371700F5
S214004FE013173700B356E600B387D70083C707000A
S214004FF093060002B387E7003387F6406392F61203
S214005000338AC5401309100013DB090193050B0012
S21400501013050A00939B0901EF20903B93DB0B01DD
S21400502093050500130C050013850B00EF20D02E0A
S214005030930A050093050B0013050A00EF20D03DE8
S2140050401315050113D704013367A700130A0C00D4
S214005050637E57013387E900130AFCFF6368370154
S21400506063765701130AECFF3307370133045741C1
S21400507093050B0013050400EF20903593050500FB
S214005080930A050013850B00EF201029930B0500EB
S21400509093050B0013050400EF20103893940401C9
S2140050A01315050193D40401B3E4A40013870A0082
S2140050B063FC7401B38499001387FAFF63E6340136
S2140050C063F474011387EAFF93170A01B3E7E70056
S2140050D08320C10203248102832441028329C10163
S2140050E0032A8101832A4101032B0101832BC1007E
S2140050F0032C8100832C41009305090013850700CB
S214005100032901021301010367800000B7060001AE
S21400511013078001E378D6EC130700016FF09FECCD
S214005120B319E60033D9F50093DB0901B395E50022
S214005130B357FA00B3EAB700B314EA0093850B003E
S21400514013050900139A0901EF209028135A0A0143
S21400515093050500130B050013050A00EF20D01B6E
S2140051601304050093850B0013050900EF20D02AD1
S2140051701315050113D70A013367A70013090B009F
S214005180637E87003387E9001309FBFF63683701F6
S214005190637687001309EBFF330737013304874034
S2140051A093850B0013050400EF209022930505005D
S2140051B0130B050013050A00EF201016130A05004E
S2140051C093850B0013050400EF20102593970A0122
S2140051D01315050193D70701B3E7A70013070B00C4
S2140051E063FE4701B387F9001307FBFF63E8370147
S2140051F063F647011307EBFFB3873701131909015D
S214005200338A47413369E9006FF01FE063EED51E2D
S214005210B707010063F4F60413B706101337170038
S21400522013173700B727010033D5E6009387875C4E
S214005230B387A70003C80700930700023308E800F7
S214005240338907416396070393071000E3E2B6E845
S214005250B337CA0093B717006FF09FE7B707000190
S21400526013078001E3F0F6FC130700016FF09FFBC5
S214005270B3962601335B0601336BDB00B3D405011E
S214005280135C0B0133580A01B3952501B369B800C6
S2140052901385040093050C00931B0B0133142601A1
S2140052A093DB0B01EF20D01293050500930C05004D
S2140052B013850B00EF205006930A050093050C009B
S2140052C013850400EF2050151315050193D6090128
S2140052D0B3E6A60093840C0063FE5601B306DB001B
S2140052E09384FCFF63E8660163F656019384ECFF43
S2140052F0B3866601B38A564193050C0013850A00EF
S214005300EF20100D93050500930C050013850B0088
S214005310EF209000930B050093050C0013850A0000
S214005320EF20900F13970901131505011357070176
S2140053303367A70093860C00637E77013307EB0084
S2140053409386FCFF63686701637677019386ECFFBC
S2140053503307670193970401370E0100B3E7D700C0
S2140053601303FEFFB3F86700337364003307774117
S21400537093DE070113540401138508009305030008
S214005380EF208079130805009305040013850800B4
S214005390EF208078930805009305030013850E0020
S2140053A0EF208077130305009305040013850E0095
S2140053B0EF20807693560801B3886800B3861601FE
S2140053C01306050063F466003306C50193D506018F
S2140053D03386C5006366C702E31AC7BC37060100FA
S2140053E01306F6FFB3F6C600939606013378C80098
S2140053F033172A01B386060113090000E37AD7CCD7
S2140054009387F7FF6FF09FBA130900009307000019
S2140054106FF01FCC130101FD232481022322910289
S2140054202326110223202103232E3101232C4101A0
S214005430232A510123286101232671012324810197
S214005440232291012320A101130405009384050063
S214005450639C0624B7270100930906009387875CA0
S21400546063FEC512370701006370E6121337061095
S2140054701337170013173700B356E600B387D70065
S21400548083C70700B387E700130700023309F74016
S214005490630CF700B3942501B357F500B319260142
S2140054A0B3E497003314250193DA090193850A00C3
S2140054B0139B090113850400EF208071135B0B0119
S2140054C093050B00EF204065130A050093850A003C
S2140054D013850400EF20407413150501935704014B
S2140054E0B3E7A70063FA4701B387F90063E637011D
S2140054F063F44701B3873701B384474193850A00B5
S21400550013850400EF20C06C93050B00EF20C060ED
S214005510130A050093850A0013850400EF20C06F68
S2140055201314040113150501135404013364A40075
S214005530637A4401338489006366340163744401EA
S21400554033043401330444413355240193050000E9
S2140055508320C1020324810283244102032901021D
S2140055608329C101032A8101832A4101032B0101FA
S214005570832BC100032C8100832C4100032D0100E6
S2140055801301010367800000B706000113078001BE
S214005590E374D6EE130700016FF01FEE130700004A
S2140055A0630C0600370701006376E60E1337061015
S2140055B01337170013173700B356E600B387D70024
S2140055C083C70700B384C540B387E700130700020C
S2140055D03309F740E30AF7ECB3192601B3DBF5000D
S2140055E013DB0901B357F500B395250133EAB7007D
S2140055F03314250193050B00939A090113850B00BC
S214005600EF20005D93DA0A0193850A00EF20C05070
S2140056109304050093050B0013850B00EF20C05F75
S2140056201315050113570A013367A700637A97001D
S2140056303387E900636637016374970033073701E1
S214005640B304974093050B0013850400EF204058E1
S21400565093850A00EF20404C930A050093050B0043
S21400566013850400EF20405B93170A01131505010C
S21400567093D70701B3E7A70063FA5701B387F9008A
S21400568063E6370163F45701B3873701B3845741A4
S2140056906FF09FE1B706000113078001E37ED6F0A6
S2140056A0130700016FF05FF1E3E4D5EAB7070100E6
S2140056B063FEF60493B7061093B717009397370068
S2140056C03727010033D8F6001307875C3307070136
S2140056D0834A0700B38AFA0093070002338A5741C9
S2140056E06390570563E4B600636CC5003309C54094
S2140056F0B386D540B334250113040900B38496401D
S21400570013050400938504006FF09FE4370700013B
S21400571093078001E3F6E6FA930700016FF05FFA5D
S214005720B3964601B35B5601B3EBDB00B3D9550124
S21400573033545501B395450193D40B013364B4003B
S214005740331B45019385040013850900139C0B0148
S21400575033194601135C0C01EF20804793050500C2
S214005760130D050013050C00EF20003B930C0500FD
S2140057709385040013850900EF20004A13150501E0
S21400578093570401B3E7A70093090D0063FE970142
S214005790B387FB009309FDFF63E8770163F6970183
S2140057A09309EDFFB3877701B38C97419385040087
S2140057B013850C00EF20C04193050500130D05006E
S2140057C013050C00EF20403593850400130C0500EC
S2140057D013850C00EF2040449315040113150501B2
S2140057E093D50501B3E5A50093070D0063FE85017B
S2140057F0B385BB009307FDFF63E8750163F685017B
S2140058009307EDFFB3857501370E010093990901E3
S214005810B3E9F9009307FEFF33F7F900B377F90011
S214005820B384854193D90901135309011305070071
S21400583093850700EF20402E13080500930503000C
S21400584013050700EF20402D13070500938507007A
S21400585013850900EF20402C9308050093050300EC
S21400586013850900EF20402B9357080133071701D3
S214005870B387E7009306050063F41701B306C50176
S21400588013D707013307D700B70601009386F6FF44
S214005890B3F7D700939707013378D800B38707018B
S2140058A063E6E400639EE400637CFB0033892741E3
S2140058B0B3B62701B3867601930709003307D740AE
S2140058C0B307FB40333BFB00B385E440B38565413B
S2140058D0B39A5501B3D7470133E5FA00B3D545016E
S2140058E06FF01FC7370810001308F8FF130101FEFA
S2140058F0B378B80013D745019357D5013378D8004D
S214005900232A91009374F77F1397380093D84601A3
S2140059101318380023282101B3E7E70093F8F87F2F
S2140059201357D601232E1100232C81002326310184
S21400593013D9F50193D6F601336707011315350021
S2140059401316360033881441631AD92A635C001193
S21400595063900804B366C700638006669305F8FF85
S214005960639005023306C500B336A6003387E7000A
S21400597013050600B307D700930410006F00C00697
S2140059809306F07F6310D8029304F07F6F00801FA9
S2140059909306F07F6388D41EB70680003367D7006F
S2140059A0930508009306800363C8B60A9306F001C1
S2140059B063CAB606130800023308B840B3160701D8
S2140059C0B358B60033180601B3E6160133380001A3
S2140059D0B3E60601B355B7003385A600B385F500D8
S2140059E0B336D500B387D50013978700635C0718D6
S2140059F0938414001307F07F638AE45A370780FF06
S214005A001307F7FF33F7E7009357150013751500D4
S214005A10B3E7A7001315F7013365F5009357170092
S214005A206F004016938605FE93080002B356D70013
S214005A301308000063881501130800043308B840F3
S214005A40331807013368C80033380001B3E606018F
S214005A50930500006FF05FF8B366C700B336D0005A
S214005A606FF01FFF630A080CB38698406394040225
S214005A70B3E5A700638E05509385F6FFE38405EE35
S214005A801308F07F639206039307070013050600CA
S214005A906FF09FEF9305F07FE388B8FEB7058000B0
S214005AA0B3E7B700938506009306800363C0B60885
S214005AB09306F00163C2B604130800023308B84028
S214005AC0B39607013353B50033180501B3E66600F5
S214005AD033380001B3E60601B3D5B7003386C600F7
S214005AE0B385E500B336D60013050600B387D500A8
S214005AF0938408006FF05FEF938605FE13030002A1
S214005B00B3D6D700130800006388650013080004A6
S214005B103308B840339807013368A80033380001CB
S214005B20B3E60601930500006FF05FFBB3E6A7003F
S214005B30B336D0006FF01FFF9386140093F5E67F10
S214005B4063960508B3E6A7006392040663880644D6
S214005B50B366C700638806023306C500B336A600E0
S214005B603387E700B307D7001397870013050600AF
S214005B70635A0700370780FF1307F7FFB3F7E700FE
S214005B809304100013777500630807441377F50035
S214005B90930640006302D74413074500B336A700B8
S214005BA0B387D700130507006F000043E38E06ECAB
S214005BB03366C700E30A06DC13090000B707400097
S214005BC0130500009304F07F6F0000419305F07FFB
S214005BD0638CB63C3306C5003335A6003387E70032
S214005BE03307A7001315F701135616003365C500D3
S214005BF093571700938406006FF0DFF8635C000F7E
S214005C00639E0808B366C7006388063A9306F8FFE3
S214005C10639006023306C540B336C5003387E740B7
S214005C2013050600B307D740930410006F00400525
S214005C309305F07FE30AB8D49305800363C6D50ABC
S214005C409305F00163C8D506130800023308D84050
S214005C50B358D600B315070133180601B3E515018E
S214005C603338000133E60501B356D7003306C54086
S214005C703337C500B386D74013050600B387E64022
S214005C8013978700E35007F0370480001304F4FFEF
S214005C9033F48700930905006F0000219306F07F18
S214005CA0E382D4EEB70680003367D7009306080079
S214005CB06FF09FF8938506FE93080002B355B70071
S214005CC01308000063881601130800043308D84040
S214005CD0331807013368C8003338000133E605017E
S214005CE0930600006FF09FF83366C7003336C00097
S214005CF06FF01FFF6308080E338898406392040411
S214005D00B3E5A700638E052A9305F8FF639E05009A
S214005D103305A6403307F7403336A600B307C7401F
S214005D20138906006FF05FF01303F07F63146802B8
S214005D3093070700130506009304F07F6F00000D1D
S214005D409305F07FE386B8FEB7058000B3E7B7009B
S214005D5093050800130880036340B8081308F00191
S214005D606342B804130300023303B340335EB50046
S214005D7033986700331365003368C8013333600017
S214005D8033656800B3D5B7003305A640B305B74002
S214005D903336A600B387C5409384080013890600EF
S214005DA06FF01FEE138805FE130E000233D80701AE
S214005DB0130300006388C501130300043303B340D4
S214005DC0339367003363A3003333600033656800A2
S214005DD0930500006FF05FFB33E5A7003335A000A6
S214005DE06FF01FFF9385140093F5E57F6396050813
S214005DF033E8A700B365C70063900406631C080079
S214005E00638E051093070700130506001389060026
S214005E106FF05FD7E38805D63308C540B338050171
S214005E20B385E740B38515419398850063DC080089
S214005E303305A6403307F7403336A600B307C740FE
S214005E406FF0DFFC3365B800630405189387050020
S214005E50130508006FF01FD3631C0800E38E05D4FB
S214005E609307070013050600138906006FF0DFB1DD
S214005E70E38C05B06FF05FD4B305C5403338B5008A
S214005E803384E740330404411318840093890500E3
S214005E9063500808B309A6403304F740333636018A
S214005EA03304C44013890600630E04061305040079
S214005EB0EF10D05C930685FF93070002B387D740A8
S214005EC03314D400B3D7F900B3E787003394D9006E
S214005ED063C4960AB3869640138616001307F0012D
S214005EE06342C706130700023307C7403395E7002F
S214005EF0B356C4003317E4003365D5003337E000EB
S214005F003365E500B3D7C700930400006FF09FC762
S214005F10B3E58500E39A05F8930400001309000032
S214005F206F00C00813850900EF10505593068501D1
S214005F309307F001E3D2D7F8930785FFB397F900EC
S214005F406FF01FF9938616FE33D5D700930600022E
S214005F50130700006308D600130700043307C74082
S214005F603397E7003367E4003337E0003365E50036
S214005F70930700006FF05FF9370780FF1307F7FFFE
S214005F80B384D440B3F7E700130504006FF09FBF57
S214005F9093070700130506006FF0DFC59307070099
S214005FA0130506006FF01FBE9304F07F93070000F2
S214005FB0130500006F004002930408006FF09FBCBA
S214005FC09307070013050600930408006FF01FE40C
S214005FD0930700001309000013978700635E07000D
S214005FE0938414001307F07F6382E408370780FF6A
S214005FF01307F7FFB3F7E7009396D701135535005D
S2140060001307F07FB3E6A60093D73700639EE4003D
S214006010B3E6F6009307000063880600B70708009B
S2140060209306000013090000139744013706F07F1B
S2140060309397C7003377C7008320C10103248101EB
S21400604093D7C700B367F7001317F90133E6E700E5
S21400605083244101032901018329C1001385060019
S21400606093050600130101026780000093070000F5
S214006070130500006FF05FF8130101FB23202105D4
S21400608013D9450123229104232E3103232C4103E7
S214006090232A5103232671039394C5002326110453
S2140060A023248104232861032324810323229103CC
S2140060B02320A103232EB1011379F97F930905004C
S2140060C0930B0600138A060093D4C40093DAF501F6
S2140060D06300090A9307F07F6300F910135DD5018A
S2140060E093943400336D9D00B7078000336DFD0038
S2140060F013143500130919C0130B000013574A0177
S2140061009319CA001377F77F93D9C900135AFA0177
S214006110630207109307F07F6306F716939939001A
S21400612093D7DB01B3E73701B7098000B3E937013E
S21400613093963B00130717C0930700003309E94006
S21400614013172B003367F7001307F7FF1306E0005B
S214006150B3C44A016364E616372601001317270006
S2140061601306C6583307C700032707006700070053
S21400617033EDA400630E0D06638E0402138504003F
S214006180EF10D02F930755FF130DD001130785FF8F
S214006190330DFD40B394E40033DDA901336D9D005B
S2140061A0B394E9001309D0C03309A940138404004E
S2140061B06FF09FF4EF10902C130D050093075D0110
S2140061C01307C00113050502E350F7FC130D8DFFFE
S2140061D0339DA9016FF01FFD33EDA40063120D027D
S2140061E0130400001309F07F130B20006FF01FF15B
S2140061F01304000013090000130B10006FF01FF0CB
S21400620013040500138D04001309F07F130B3000F0
S2140062106FF0DFEEB3E67901638206086380090457
S21400622013850900EF109025130755FF9307D0013B
S214006230930685FFB387E740B399D900B3D7FB0031
S214006240B3E73701B399DB001307D0C09386090084
S2140062503307A740938907006FF01FEE13850B00E6
S214006260EF10D02193070500138757019306C0014E
S21400627013050502E3DCE6FA938787FFB397FB0076
S2140062806FF09FFCB3E67901639206029309000063
S2140062901307F07F930720006FF05FEA9309000072
S2140062A013070000930710006FF05FE993860B005A
S2140062B01307F07F930730006FF05FE863E6A901ED
S2140062C063163D456364D4441317FD0193571400C9
S2140062D0931DF401135D1D003364F70013DC860183
S2140062E0139B8900336C6C01135B0B0193050B0049
S2140062F0931B0C0113050D00939C860093DB0B018A
S214006300EF10100D93050500930A050013850B008A
S214006310EF1090009309050093050B0013050D0080
S214006320EF10900F1315050193570401B3E7A7006C
S214006330138A0A0063FE3701B307FC00138AFAFFCC
S21400634063E8870163F63701138AEAFFB38787019C
S214006350B389374193050B0013850900EF105007EA
S21400636093050500130D050013850B00EF10C07A8A
S214006370930A050093050B0013850900EF10D0095A
S214006380931704011315050193D70701B3E7A70078
S21400639013070D0063FE5701B307FC001307FDFF4C
S2140063A063E8870163F657011307EDFFB38787019C
S2140063B013180A01B70E01003368E800138AFEFFBF
S2140063C0B378480193D60C0133FA4C01B387574192
S2140063D0135708012326D1001385080093050A00E9
S2140063E0EF1080731303050093D50C011385080086
S2140063F0EF1080729308050093050A001305070046
S214006400EF108071130E050093D50C0113050700DD
S214006410EF10807013570301B388C80133071701C4
S214006420130605006374C7013306D50193560701AA
S214006430B386C600370601001306F6FF3377C7009B
S214006440131707013373C3003307670063E8D700E9
S214006450930908006398D70463F6ED0433869D011C
S214006460B335B60133858501B387A7009309F8FFD6
S214006470930D06006366FC006316FC026394050237
S21400648063E6D7006390F602637EE6003386CC00B0
S214006490930D060033369601330686019309E8FF0E
S2140064A0B387C700338DED40B387D740B3BDAD018A
S2140064B03384B7419306F0FF630E8C1893050B00E8
S2140064C013050400EF10C07093050500930A05003D
S2140064D013850B00EF104064930D050093050B0029
S2140064E013050400EF1040731315050193560D01B4
S2140064F0B3E6A60013840A0063FEB601B306DC000A
S2140065001384FAFF63E8860163F6B6011384EAFF94
S214006510B3868601B38AB64193050B0013850A003D
S214006520EF10006B93050500930D050013850B0017
S214006530EF10805E930B050093050B0013850A0091
S214006540EF10806D93170D011315050193D7070102
S214006550B3E7A70013870D0063FE7701B307FC00BF
S2140065601387FDFF63E8870163F677011387EDFF66
S214006570B3878701131804013368E80093180801ED
S21400658093D80801B387774113570801138508008D
S21400659093050A00EF1040581303050093D50C012D
S2140065A013850800EF1040579308050093050A006E
S2140065B013050700EF104056130E050093D50C0187
S2140065C013050700EF10405513570301B388C801A1
S2140065D033071701930605006376C70137060100E7
S2140065E0B306C500135607013306D600B7060100EA
S2140065F09386F6FF3377D700131707013373D3005C
S2140066003307670063E8C7006394C724930608004F
S21400661063020704B307FC009306F8FF93850700A0
S21400662063E4870363E6C7006392C72263F0EC0265
S21400663013951C00B3359501B38585019306E8FFD5
S214006640B385B700930C05006394C50063049701F7
S21400665093E616001307F93F635AE01093F77600A7
S2140066606380070293F7F60013064000638AC700AC
S2140066709387460033B6D700B389C90093860700D0
S2140066809397790063DA0700B70700FF9387F7FF51
S214006690B3F9F900130709409307E07F63C2E70ADE
S2140066A093D636009397D901B3E6D70093D5390031
S2140066B09395C5008320C1040324810493D5C500A7
S2140066C0131747013367B7009394F401B367970035
S2140066D003290104832441048329C103032A810377
S2140066E0832A4103032B0103832BC102032C81025F
S2140066F0832C4102032D0102832DC1011385060060
S2140067009385070013010105678000001309F9FF50
S214006710930D00006FF09FBC93840A0093090D0050
S2140067209306040093070B00130730006388E70EF8
S21400673013071000638EE70E13072000E39CE7F0B4
S21400674093050000930600001307F07F6FF05FF6D6
S21400675093040A006FF05FFDB70908009306000077
S21400676093040000930730006FF01FFC93051000A1
S214006770B385E5409307800363CCB70A9307F0011F
S21400678063C4B7061309E941B397290133D7B600A6
S21400679033992601B3E7E70033392001B3E7270131
S2140067A0B3D5B90013F777006300070213F7F700B5
S2140067B093064000630AD70013874700B336F700F6
S2140067C0B385D5009307070013978500634807062F
S2140067D09396D50193D73700B3E6F60093D53500E8
S2140067E0130700006FF0DFEC930710FEB387E74057
S2140067F013060002B3D7F900130700006386C5002E
S2140068001307E9433397E9003367D7003337E000CF
S214006810B3E7E700930500006FF0DFF8B705080060
S214006820930600001307F07F930400006FF05FE804
S21400683093050000930600006FF09FFA9305000092
S21400684093060000130710006FF09FE613880600FB
S214006850930608006FF0DFDF13D74501B707100077
S2140068609387F7FF13D8460113030500930E050020
S2140068701377F77F1305F07FB3F8B700130F060002
S214006880B3F7D70093D5F5011378F87F93D6F601C2
S214006890631CA70033EE68001305100063140E0097
S2140068A06306E800678000006318A80033E6C700A8
S2140068B013051000E31806FE13051000E31407FF87
S2140068C0E392F8FEE390EEFF638AD500E31C07FC34
